{
  "contractName": "PokemonAdoption",
  "abi": [
    {
      "constant": true,
      "inputs": [
        {
          "name": "",
          "type": "uint256"
        }
      ],
      "name": "trainers",
      "outputs": [
        {
          "name": "",
          "type": "address"
        }
      ],
      "payable": false,
      "stateMutability": "view",
      "type": "function"
    },
    {
      "constant": false,
      "inputs": [
        {
          "name": "pokeId",
          "type": "uint256"
        }
      ],
      "name": "purchase",
      "outputs": [
        {
          "name": "",
          "type": "uint256"
        }
      ],
      "payable": false,
      "stateMutability": "nonpayable",
      "type": "function"
    },
    {
      "constant": true,
      "inputs": [],
      "name": "getAdopters",
      "outputs": [
        {
          "name": "",
          "type": "address[]"
        }
      ],
      "payable": false,
      "stateMutability": "view",
      "type": "function"
    }
  ],
  "bytecode": "0x608060405234801561001057600080fd5b506102f0806100206000396000f300608060405260043610610057576000357c0100000000000000000000000000000000000000000000000000000000900463ffffffff16806320adc4d91461005c5780633de4eb17146100c9578063efef39a114610135575b600080fd5b34801561006857600080fd5b5061008760048036038101908080359060200190929190505050610176565b604051808273ffffffffffffffffffffffffffffffffffffffff1673ffffffffffffffffffffffffffffffffffffffff16815260200191505060405180910390f35b3480156100d557600080fd5b506100de6101b4565b6040518080602001828103825283818151815260200191508051906020019060200280838360005b83811015610121578082015181840152602081019050610106565b505050509050019250505060405180910390f35b34801561014157600080fd5b5061016060048036038101908080359060200190929190505050610242565b6040518082815260200191505060405180910390f35b60008181548110151561018557fe5b906000526020600020016000915054906101000a900473ffffffffffffffffffffffffffffffffffffffff1681565b6060600080548060200260200160405190810160405280929190818152602001828054801561023857602002820191906000526020600020905b8160009054906101000a900473ffffffffffffffffffffffffffffffffffffffff1673ffffffffffffffffffffffffffffffffffffffff16815260200190600101908083116101ee575b5050505050905090565b600080821015801561025957506000805490508211155b151561026457600080fd5b3360008381548110151561027457fe5b9060005260206000200160006101000a81548173ffffffffffffffffffffffffffffffffffffffff021916908373ffffffffffffffffffffffffffffffffffffffff1602179055508190509190505600a165627a7a7230582046d6d9cb778e6b5705664bbfe94bb05678b4bd49da7282d005aa0c6e092ce38e0029",
  "source": "pragma solidity ^0.4.24;\n\ncontract PokemonAdoption {\n    // an array of addresses(accounts) with length of 16\n    address[] public trainers;\n\n    // takes an pokemon id (an integer) and returns an integer(pokemone id) after the purchases is registered as the pokemon's trainer\n    function purchase(uint pokeId) public returns (uint) {\n        require(pokeId >= 0 && pokeId <= trainers.length);\n\n        trainers[pokeId] = msg.sender;\n        return pokeId;\n    }\n\n    function getAdopters() public view returns (address[]) {\n        return trainers;\n    }\n\n}\n",
  "sourcePath": "/Users/cangtruong/fullstack/pokemon-trading-blockchain/contracts/PokemonAdoption.sol",
  "compiler": {
    "name": "solc",
    "version": "0.4.24+commit.e67f0147.Emscripten.clang"
  },
  "schemaVersion": "2.0.1",
  "updatedAt": "2018-11-07T02:58:31.950Z"
}