{
  "contractName": "PokemonDraft",
  "abi": [
    {
      "constant": true,
      "inputs": [
        {
          "name": "",
          "type": "uint256"
        }
      ],
      "name": "trainers",
      "outputs": [
        {
          "name": "",
          "type": "address"
        }
      ],
      "payable": false,
      "stateMutability": "view",
      "type": "function"
    },
    {
      "constant": false,
      "inputs": [
        {
          "name": "pokeId",
          "type": "uint256"
        }
      ],
      "name": "draft",
      "outputs": [
        {
          "name": "",
          "type": "uint256"
        }
      ],
      "payable": false,
      "stateMutability": "nonpayable",
      "type": "function"
    },
    {
      "constant": true,
      "inputs": [],
      "name": "getTrainers",
      "outputs": [
        {
          "name": "",
          "type": "address[15]"
        }
      ],
      "payable": false,
      "stateMutability": "view",
      "type": "function"
    }
  ],
  "bytecode": "0x6060604052341561000f57600080fd5b6102dd8061001e6000396000f300606060405260043610610057576000357c0100000000000000000000000000000000000000000000000000000000900463ffffffff16806320adc4d91461005c5780634958164a146100bf578063710cf1ed14610110575b600080fd5b341561006757600080fd5b61007d6004808035906020019091905050610147565b604051808273ffffffffffffffffffffffffffffffffffffffff1673ffffffffffffffffffffffffffffffffffffffff16815260200191505060405180910390f35b34156100ca57600080fd5b6100d261017c565b6040518082600f60200280838360005b838110156100fd5780820151818401526020810190506100e2565b5050505090500191505060405180910390f35b341561011b57600080fd5b61013160048080359060200190919050506101fd565b6040518082815260200191505060405180910390f35b600081600f8110151561015657fe5b016000915054906101000a900473ffffffffffffffffffffffffffffffffffffffff1681565b610184610272565b6000600f806020026040519081016040528092919082600f80156101f3576020028201915b8160009054906101000a900473ffffffffffffffffffffffffffffffffffffffff1673ffffffffffffffffffffffffffffffffffffffff16815260200190600101908083116101a9575b5050505050905090565b60008082101580156102105750600e8211155b151561021b57600080fd5b33600083600f8110151561022b57fe5b0160006101000a81548173ffffffffffffffffffffffffffffffffffffffff021916908373ffffffffffffffffffffffffffffffffffffffff160217905550819050919050565b6101e060405190810160405280600f905b600073ffffffffffffffffffffffffffffffffffffffff1681526020019060019003908161028357905050905600a165627a7a72305820c774c1d27d63b00f18c1211c99eef5b546b93a6c550c53e75853031ee0759b120029",
  "source": "pragma solidity ^0.4.21;\n\ncontract PokemonDraft {\n    // an array of addresses(accounts) with length of 15\n    address[15] public trainers; // trainers\n\n    // takes an pokemon id (an integer) and returns an integer(pokemone id) after the draft is registered and the pokemon belongs to the pokemon's trainer\n    function draft(uint pokeId) public returns (uint) {\n        // making sure that the pokemon's id can be found within the trainers array\n        require(pokeId >= 0 && pokeId <= 14);\n\n        trainers[pokeId] = msg.sender;\n        return pokeId;\n    }\n\n    function getTrainers() public view returns (address[15]) {\n        return trainers;\n    }\n\n\n}\n",
  "sourcePath": "/Users/cangtruong/fullstack/pokemon-trading-blockchain/contracts/PokemonDraft.sol",
  "compiler": {
    "name": "solc",
    "version": "0.4.21+commit.dfe3193c.Emscripten.clang"
  },
  "schemaVersion": "2.0.0",
  "updatedAt": "2018-11-09T04:12:37.046Z"
}